{
  "_format": "hh-sol-artifact-1",
  "contractName": "ToyotaNFT",
  "sourceName": "contracts/ToyotaNFT.sol",
  "abi": [
    {
      "inputs": [
        {
          "internalType": "address",
          "name": "initialOwner",
          "type": "address"
        }
      ],
      "stateMutability": "nonpayable",
      "type": "constructor"
    },
    {
      "inputs": [
        {
          "internalType": "address",
          "name": "sender",
          "type": "address"
        },
        {
          "internalType": "uint256",
          "name": "tokenId",
          "type": "uint256"
        },
        {
          "internalType": "address",
          "name": "owner",
          "type": "address"
        }
      ],
      "name": "ERC721IncorrectOwner",
      "type": "error"
    },
    {
      "inputs": [
        {
          "internalType": "address",
          "name": "operator",
          "type": "address"
        },
        {
          "internalType": "uint256",
          "name": "tokenId",
          "type": "uint256"
        }
      ],
      "name": "ERC721InsufficientApproval",
      "type": "error"
    },
    {
      "inputs": [
        {
          "internalType": "address",
          "name": "approver",
          "type": "address"
        }
      ],
      "name": "ERC721InvalidApprover",
      "type": "error"
    },
    {
      "inputs": [
        {
          "internalType": "address",
          "name": "operator",
          "type": "address"
        }
      ],
      "name": "ERC721InvalidOperator",
      "type": "error"
    },
    {
      "inputs": [
        {
          "internalType": "address",
          "name": "owner",
          "type": "address"
        }
      ],
      "name": "ERC721InvalidOwner",
      "type": "error"
    },
    {
      "inputs": [
        {
          "internalType": "address",
          "name": "receiver",
          "type": "address"
        }
      ],
      "name": "ERC721InvalidReceiver",
      "type": "error"
    },
    {
      "inputs": [
        {
          "internalType": "address",
          "name": "sender",
          "type": "address"
        }
      ],
      "name": "ERC721InvalidSender",
      "type": "error"
    },
    {
      "inputs": [
        {
          "internalType": "uint256",
          "name": "tokenId",
          "type": "uint256"
        }
      ],
      "name": "ERC721NonexistentToken",
      "type": "error"
    },
    {
      "inputs": [],
      "name": "OnlySimulatedBackend",
      "type": "error"
    },
    {
      "inputs": [
        {
          "internalType": "address",
          "name": "owner",
          "type": "address"
        }
      ],
      "name": "OwnableInvalidOwner",
      "type": "error"
    },
    {
      "inputs": [
        {
          "internalType": "address",
          "name": "account",
          "type": "address"
        }
      ],
      "name": "OwnableUnauthorizedAccount",
      "type": "error"
    },
    {
      "anonymous": false,
      "inputs": [
        {
          "indexed": true,
          "internalType": "address",
          "name": "owner",
          "type": "address"
        },
        {
          "indexed": true,
          "internalType": "address",
          "name": "approved",
          "type": "address"
        },
        {
          "indexed": true,
          "internalType": "uint256",
          "name": "tokenId",
          "type": "uint256"
        }
      ],
      "name": "Approval",
      "type": "event"
    },
    {
      "anonymous": false,
      "inputs": [
        {
          "indexed": true,
          "internalType": "address",
          "name": "owner",
          "type": "address"
        },
        {
          "indexed": true,
          "internalType": "address",
          "name": "operator",
          "type": "address"
        },
        {
          "indexed": false,
          "internalType": "bool",
          "name": "approved",
          "type": "bool"
        }
      ],
      "name": "ApprovalForAll",
      "type": "event"
    },
    {
      "anonymous": false,
      "inputs": [
        {
          "indexed": false,
          "internalType": "uint256",
          "name": "_fromTokenId",
          "type": "uint256"
        },
        {
          "indexed": false,
          "internalType": "uint256",
          "name": "_toTokenId",
          "type": "uint256"
        }
      ],
      "name": "BatchMetadataUpdate",
      "type": "event"
    },
    {
      "anonymous": false,
      "inputs": [
        {
          "indexed": false,
          "internalType": "uint256",
          "name": "_tokenId",
          "type": "uint256"
        }
      ],
      "name": "MetadataUpdate",
      "type": "event"
    },
    {
      "anonymous": false,
      "inputs": [
        {
          "indexed": true,
          "internalType": "address",
          "name": "previousOwner",
          "type": "address"
        },
        {
          "indexed": true,
          "internalType": "address",
          "name": "newOwner",
          "type": "address"
        }
      ],
      "name": "OwnershipTransferred",
      "type": "event"
    },
    {
      "anonymous": false,
      "inputs": [
        {
          "indexed": true,
          "internalType": "address",
          "name": "from",
          "type": "address"
        },
        {
          "indexed": true,
          "internalType": "address",
          "name": "to",
          "type": "address"
        },
        {
          "indexed": true,
          "internalType": "uint256",
          "name": "tokenId",
          "type": "uint256"
        }
      ],
      "name": "Transfer",
      "type": "event"
    },
    {
      "inputs": [],
      "name": "METADATA_RED_CAR",
      "outputs": [
        {
          "internalType": "string",
          "name": "",
          "type": "string"
        }
      ],
      "stateMutability": "view",
      "type": "function"
    },
    {
      "inputs": [],
      "name": "METADATA_SILVER_CAR",
      "outputs": [
        {
          "internalType": "string",
          "name": "",
          "type": "string"
        }
      ],
      "stateMutability": "view",
      "type": "function"
    },
    {
      "inputs": [],
      "name": "METADATA_YELLOW_CAR",
      "outputs": [
        {
          "internalType": "string",
          "name": "",
          "type": "string"
        }
      ],
      "stateMutability": "view",
      "type": "function"
    },
    {
      "inputs": [
        {
          "internalType": "address",
          "name": "to",
          "type": "address"
        },
        {
          "internalType": "uint256",
          "name": "tokenId",
          "type": "uint256"
        }
      ],
      "name": "approve",
      "outputs": [],
      "stateMutability": "nonpayable",
      "type": "function"
    },
    {
      "inputs": [
        {
          "internalType": "address",
          "name": "owner",
          "type": "address"
        }
      ],
      "name": "balanceOf",
      "outputs": [
        {
          "internalType": "uint256",
          "name": "",
          "type": "uint256"
        }
      ],
      "stateMutability": "view",
      "type": "function"
    },
    {
      "inputs": [
        {
          "internalType": "bytes",
          "name": "",
          "type": "bytes"
        }
      ],
      "name": "checkUpkeep",
      "outputs": [
        {
          "internalType": "bool",
          "name": "upkeepNeeded",
          "type": "bool"
        },
        {
          "internalType": "bytes",
          "name": "",
          "type": "bytes"
        }
      ],
      "stateMutability": "view",
      "type": "function"
    },
    {
      "inputs": [
        {
          "internalType": "uint256",
          "name": "tokenId",
          "type": "uint256"
        }
      ],
      "name": "getApproved",
      "outputs": [
        {
          "internalType": "address",
          "name": "",
          "type": "address"
        }
      ],
      "stateMutability": "view",
      "type": "function"
    },
    {
      "inputs": [
        {
          "internalType": "address",
          "name": "owner",
          "type": "address"
        },
        {
          "internalType": "address",
          "name": "operator",
          "type": "address"
        }
      ],
      "name": "isApprovedForAll",
      "outputs": [
        {
          "internalType": "bool",
          "name": "",
          "type": "bool"
        }
      ],
      "stateMutability": "view",
      "type": "function"
    },
    {
      "inputs": [],
      "name": "mintCar",
      "outputs": [],
      "stateMutability": "nonpayable",
      "type": "function"
    },
    {
      "inputs": [],
      "name": "name",
      "outputs": [
        {
          "internalType": "string",
          "name": "",
          "type": "string"
        }
      ],
      "stateMutability": "view",
      "type": "function"
    },
    {
      "inputs": [],
      "name": "owner",
      "outputs": [
        {
          "internalType": "address",
          "name": "",
          "type": "address"
        }
      ],
      "stateMutability": "view",
      "type": "function"
    },
    {
      "inputs": [
        {
          "internalType": "uint256",
          "name": "tokenId",
          "type": "uint256"
        }
      ],
      "name": "ownerOf",
      "outputs": [
        {
          "internalType": "address",
          "name": "",
          "type": "address"
        }
      ],
      "stateMutability": "view",
      "type": "function"
    },
    {
      "inputs": [
        {
          "internalType": "bytes",
          "name": "",
          "type": "bytes"
        }
      ],
      "name": "performUpkeep",
      "outputs": [],
      "stateMutability": "nonpayable",
      "type": "function"
    },
    {
      "inputs": [],
      "name": "renounceOwnership",
      "outputs": [],
      "stateMutability": "nonpayable",
      "type": "function"
    },
    {
      "inputs": [
        {
          "internalType": "address",
          "name": "from",
          "type": "address"
        },
        {
          "internalType": "address",
          "name": "to",
          "type": "address"
        },
        {
          "internalType": "uint256",
          "name": "tokenId",
          "type": "uint256"
        }
      ],
      "name": "safeTransferFrom",
      "outputs": [],
      "stateMutability": "nonpayable",
      "type": "function"
    },
    {
      "inputs": [
        {
          "internalType": "address",
          "name": "from",
          "type": "address"
        },
        {
          "internalType": "address",
          "name": "to",
          "type": "address"
        },
        {
          "internalType": "uint256",
          "name": "tokenId",
          "type": "uint256"
        },
        {
          "internalType": "bytes",
          "name": "data",
          "type": "bytes"
        }
      ],
      "name": "safeTransferFrom",
      "outputs": [],
      "stateMutability": "nonpayable",
      "type": "function"
    },
    {
      "inputs": [
        {
          "internalType": "address",
          "name": "operator",
          "type": "address"
        },
        {
          "internalType": "bool",
          "name": "approved",
          "type": "bool"
        }
      ],
      "name": "setApprovalForAll",
      "outputs": [],
      "stateMutability": "nonpayable",
      "type": "function"
    },
    {
      "inputs": [
        {
          "internalType": "bytes4",
          "name": "interfaceId",
          "type": "bytes4"
        }
      ],
      "name": "supportsInterface",
      "outputs": [
        {
          "internalType": "bool",
          "name": "",
          "type": "bool"
        }
      ],
      "stateMutability": "view",
      "type": "function"
    },
    {
      "inputs": [],
      "name": "symbol",
      "outputs": [
        {
          "internalType": "string",
          "name": "",
          "type": "string"
        }
      ],
      "stateMutability": "view",
      "type": "function"
    },
    {
      "inputs": [],
      "name": "timestamp",
      "outputs": [
        {
          "internalType": "uint256",
          "name": "",
          "type": "uint256"
        }
      ],
      "stateMutability": "view",
      "type": "function"
    },
    {
      "inputs": [
        {
          "internalType": "uint256",
          "name": "tokenId",
          "type": "uint256"
        }
      ],
      "name": "tokenURI",
      "outputs": [
        {
          "internalType": "string",
          "name": "",
          "type": "string"
        }
      ],
      "stateMutability": "view",
      "type": "function"
    },
    {
      "inputs": [
        {
          "internalType": "address",
          "name": "from",
          "type": "address"
        },
        {
          "internalType": "address",
          "name": "to",
          "type": "address"
        },
        {
          "internalType": "uint256",
          "name": "tokenId",
          "type": "uint256"
        }
      ],
      "name": "transferFrom",
      "outputs": [],
      "stateMutability": "nonpayable",
      "type": "function"
    },
    {
      "inputs": [
        {
          "internalType": "address",
          "name": "newOwner",
          "type": "address"
        }
      ],
      "name": "transferOwnership",
      "outputs": [],
      "stateMutability": "nonpayable",
      "type": "function"
    },
    {
      "inputs": [],
      "name": "updateTokenMetadata",
      "outputs": [],
      "stateMutability": "nonpayable",
      "type": "function"
    }
  ],
  "bytecode": "0x60806040523480156200001157600080fd5b506040516200310b3803806200310b833981810160405281019062000037919062000288565b806040518060400160405280600a81526020017f546f796f746143617273000000000000000000000000000000000000000000008152506040518060400160405280600481526020017f54434152000000000000000000000000000000000000000000000000000000008152508160009081620000b5919062000534565b508060019081620000c7919062000534565b505050600073ffffffffffffffffffffffffffffffffffffffff168173ffffffffffffffffffffffffffffffffffffffff16036200013f5760006040517f1e4fbdf70000000000000000000000000000000000000000000000000000000081526004016200013691906200062c565b60405180910390fd5b62000150816200015860201b60201c565b505062000649565b6000600760009054906101000a900473ffffffffffffffffffffffffffffffffffffffff16905081600760006101000a81548173ffffffffffffffffffffffffffffffffffffffff021916908373ffffffffffffffffffffffffffffffffffffffff1602179055508173ffffffffffffffffffffffffffffffffffffffff168173ffffffffffffffffffffffffffffffffffffffff167f8be0079c531659141344cd1fd0a4f28419497f9722a3daafe3b4186f6b6457e060405160405180910390a35050565b600080fd5b600073ffffffffffffffffffffffffffffffffffffffff82169050919050565b6000620002508262000223565b9050919050565b620002628162000243565b81146200026e57600080fd5b50565b600081519050620002828162000257565b92915050565b600060208284031215620002a157620002a06200021e565b5b6000620002b18482850162000271565b91505092915050565b600081519050919050565b7f4e487b7100000000000000000000000000000000000000000000000000000000600052604160045260246000fd5b7f4e487b7100000000000000000000000000000000000000000000000000000000600052602260045260246000fd5b600060028204905060018216806200033c57607f821691505b602082108103620003525762000351620002f4565b5b50919050565b60008190508160005260206000209050919050565b60006020601f8301049050919050565b600082821b905092915050565b600060088302620003bc7fffffffffffffffffffffffffffffffffffffffffffffffffffffffffffffffff826200037d565b620003c886836200037d565b95508019841693508086168417925050509392505050565b6000819050919050565b6000819050919050565b6000620004156200040f6200040984620003e0565b620003ea565b620003e0565b9050919050565b6000819050919050565b6200043183620003f4565b6200044962000440826200041c565b8484546200038a565b825550505050565b600090565b6200046062000451565b6200046d81848462000426565b505050565b5b8181101562000495576200048960008262000456565b60018101905062000473565b5050565b601f821115620004e457620004ae8162000358565b620004b9846200036d565b81016020851015620004c9578190505b620004e1620004d8856200036d565b83018262000472565b50505b505050565b600082821c905092915050565b60006200050960001984600802620004e9565b1980831691505092915050565b6000620005248383620004f6565b9150826002028217905092915050565b6200053f82620002ba565b67ffffffffffffffff8111156200055b576200055a620002c5565b5b62000567825462000323565b6200057482828562000499565b600060209050601f831160018114620005ac576000841562000597578287015190505b620005a3858262000516565b86555062000613565b601f198416620005bc8662000358565b60005b82811015620005e657848901518255600182019150602085019450602081019050620005bf565b8683101562000606578489015162000602601f891682620004f6565b8355505b6001600288020188555050505b505050505050565b620006268162000243565b82525050565b60006020820190506200064360008301846200061b565b92915050565b612ab280620006596000396000f3fe608060405234801561001057600080fd5b50600436106101585760003560e01c8063715018a6116100c3578063a2c81cc61161007c578063a2c81cc61461038e578063b80777ea146103ac578063b88d4fde146103ca578063c87b56dd146103e6578063e985e9c514610416578063f2fde38b1461044657610158565b8063715018a6146102f05780637b41f311146102fa5780638da5cb5b1461031857806395d89b41146103365780639d97b02e14610354578063a22cb4651461037257610158565b806342842e0e1161011557806342842e0e1461021d5780634585e33b146102395780634a903464146102555780636352211e1461025f5780636e04ff0d1461028f57806370a08231146102c057610158565b806301ffc9a71461015d57806306fdde031461018d578063081812fc146101ab578063095ea7b3146101db57806323b872dd146101f75780633a7bb4b214610213575b600080fd5b61017760048036038101906101729190611e12565b610462565b6040516101849190611e5a565b60405180910390f35b6101956104c3565b6040516101a29190611f05565b60405180910390f35b6101c560048036038101906101c09190611f5d565b610555565b6040516101d29190611fcb565b60405180910390f35b6101f560048036038101906101f09190612012565b610571565b005b610211600480360381019061020c9190612052565b610587565b005b61021b610689565b005b61023760048036038101906102329190612052565b610704565b005b610253600480360381019061024e919061210a565b610724565b005b61025d610751565b005b61027960048036038101906102749190611f5d565b6108c3565b6040516102869190611fcb565b60405180910390f35b6102a960048036038101906102a4919061210a565b6108d5565b6040516102b79291906121ac565b60405180910390f35b6102da60048036038101906102d591906121dc565b6108f3565b6040516102e79190612218565b60405180910390f35b6102f86109ad565b005b6103026109c1565b60405161030f9190611f05565b60405180910390f35b6103206109dd565b60405161032d9190611fcb565b60405180910390f35b61033e610a07565b60405161034b9190611f05565b60405180910390f35b61035c610a99565b6040516103699190611f05565b60405180910390f35b61038c6004803603810190610387919061225f565b610ab5565b005b610396610acb565b6040516103a39190611f05565b60405180910390f35b6103b4610ae7565b6040516103c19190612218565b60405180910390f35b6103e460048036038101906103df91906123cf565b610aed565b005b61040060048036038101906103fb9190611f5d565b610b0a565b60405161040d9190611f05565b60405180910390f35b610430600480360381019061042b9190612452565b610c1d565b60405161043d9190611e5a565b60405180910390f35b610460600480360381019061045b91906121dc565b610cb1565b005b6000634906490660e01b7bffffffffffffffffffffffffffffffffffffffffffffffffffffffff1916827bffffffffffffffffffffffffffffffffffffffffffffffffffffffff191614806104bc57506104bb82610d37565b5b9050919050565b6060600080546104d2906124c1565b80601f01602080910402602001604051908101604052809291908181526020018280546104fe906124c1565b801561054b5780601f106105205761010080835404028352916020019161054b565b820191906000526020600020905b81548152906001019060200180831161052e57829003601f168201915b5050505050905090565b600061056082610e19565b5061056a82610ea1565b9050919050565b610583828261057e610ede565b610ee6565b5050565b600073ffffffffffffffffffffffffffffffffffffffff168273ffffffffffffffffffffffffffffffffffffffff16036105f95760006040517f64a0ae920000000000000000000000000000000000000000000000000000000081526004016105f09190611fcb565b60405180910390fd5b600061060d8383610608610ede565b610ef8565b90508373ffffffffffffffffffffffffffffffffffffffff168173ffffffffffffffffffffffffffffffffffffffff1614610683578382826040517f64283d7b00000000000000000000000000000000000000000000000000000000815260040161067a939291906124f2565b60405180910390fd5b50505050565b6000600854905061069a3382611112565b6106bc816040518060800160405280604c81526020016129e5604c9139611130565b6000600a600083815260200190815260200160002060006101000a81548160ff021916908360ff160217905550600860008154809291906106fc90612558565b919050555050565b61071f83838360405180602001604052806000815250610aed565b505050565b60786009544261073491906125a0565b1161073e57600080fd5b4260098190555061074d610751565b5050565b60005b6008548110156108c0576000600a600083815260200190815260200160002060009054906101000a900460ff1660ff16036107dd576107ab816040518060800160405280604c8152602001612a31604c9139611130565b6001600a600083815260200190815260200160002060006101000a81548160ff021916908360ff1602179055506108ad565b6001600a600083815260200190815260200160002060009054906101000a900460ff1660ff160361085c5761082a816040518060800160405280604c8152602001612999604c9139611130565b6002600a600083815260200190815260200160002060006101000a81548160ff021916908360ff1602179055506108ac565b61087e816040518060800160405280604c81526020016129e5604c9139611130565b6000600a600083815260200190815260200160002060006101000a81548160ff021916908360ff1602179055505b5b80806108b890612558565b915050610754565b50565b60006108ce82610e19565b9050919050565b600060606078600954426108e991906125a0565b1191509250929050565b60008073ffffffffffffffffffffffffffffffffffffffff168273ffffffffffffffffffffffffffffffffffffffff16036109665760006040517f89c62b6400000000000000000000000000000000000000000000000000000000815260040161095d9190611fcb565b60405180910390fd5b600360008373ffffffffffffffffffffffffffffffffffffffff1673ffffffffffffffffffffffffffffffffffffffff168152602001908152602001600020549050919050565b6109b561118c565b6109bf6000611213565b565b6040518060800160405280604c8152602001612a31604c913981565b6000600760009054906101000a900473ffffffffffffffffffffffffffffffffffffffff16905090565b606060018054610a16906124c1565b80601f0160208091040260200160405190810160405280929190818152602001828054610a42906124c1565b8015610a8f5780601f10610a6457610100808354040283529160200191610a8f565b820191906000526020600020905b815481529060010190602001808311610a7257829003601f168201915b5050505050905090565b6040518060800160405280604c8152602001612999604c913981565b610ac7610ac0610ede565b83836112d9565b5050565b6040518060800160405280604c81526020016129e5604c913981565b60095481565b610af8848484610587565b610b0484848484611448565b50505050565b6060610b1582610e19565b506000600660008481526020019081526020016000208054610b36906124c1565b80601f0160208091040260200160405190810160405280929190818152602001828054610b62906124c1565b8015610baf5780601f10610b8457610100808354040283529160200191610baf565b820191906000526020600020905b815481529060010190602001808311610b9257829003601f168201915b505050505090506000610bc06115ff565b90506000815103610bd5578192505050610c18565b600082511115610c0a578082604051602001610bf2929190612610565b60405160208183030381529060405292505050610c18565b610c1384611616565b925050505b919050565b6000600560008473ffffffffffffffffffffffffffffffffffffffff1673ffffffffffffffffffffffffffffffffffffffff16815260200190815260200160002060008373ffffffffffffffffffffffffffffffffffffffff1673ffffffffffffffffffffffffffffffffffffffff16815260200190815260200160002060009054906101000a900460ff16905092915050565b610cb961118c565b600073ffffffffffffffffffffffffffffffffffffffff168173ffffffffffffffffffffffffffffffffffffffff1603610d2b5760006040517f1e4fbdf7000000000000000000000000000000000000000000000000000000008152600401610d229190611fcb565b60405180910390fd5b610d3481611213565b50565b60007f80ac58cd000000000000000000000000000000000000000000000000000000007bffffffffffffffffffffffffffffffffffffffffffffffffffffffff1916827bffffffffffffffffffffffffffffffffffffffffffffffffffffffff19161480610e0257507f5b5e139f000000000000000000000000000000000000000000000000000000007bffffffffffffffffffffffffffffffffffffffffffffffffffffffff1916827bffffffffffffffffffffffffffffffffffffffffffffffffffffffff1916145b80610e125750610e118261167f565b5b9050919050565b600080610e25836116e9565b9050600073ffffffffffffffffffffffffffffffffffffffff168173ffffffffffffffffffffffffffffffffffffffff1603610e9857826040517f7e273289000000000000000000000000000000000000000000000000000000008152600401610e8f9190612218565b60405180910390fd5b80915050919050565b60006004600083815260200190815260200160002060009054906101000a900473ffffffffffffffffffffffffffffffffffffffff169050919050565b600033905090565b610ef38383836001611726565b505050565b600080610f04846116e9565b9050600073ffffffffffffffffffffffffffffffffffffffff168373ffffffffffffffffffffffffffffffffffffffff1614610f4657610f458184866118eb565b5b600073ffffffffffffffffffffffffffffffffffffffff168173ffffffffffffffffffffffffffffffffffffffff1614610fd757610f88600085600080611726565b6001600360008373ffffffffffffffffffffffffffffffffffffffff1673ffffffffffffffffffffffffffffffffffffffff168152602001908152602001600020600082825403925050819055505b600073ffffffffffffffffffffffffffffffffffffffff168573ffffffffffffffffffffffffffffffffffffffff161461105a576001600360008773ffffffffffffffffffffffffffffffffffffffff1673ffffffffffffffffffffffffffffffffffffffff168152602001908152602001600020600082825401925050819055505b846002600086815260200190815260200160002060006101000a81548173ffffffffffffffffffffffffffffffffffffffff021916908373ffffffffffffffffffffffffffffffffffffffff160217905550838573ffffffffffffffffffffffffffffffffffffffff168273ffffffffffffffffffffffffffffffffffffffff167fddf252ad1be2c89b69c2b068fc378daa952ba7f163c4a11628f55a4df523b3ef60405160405180910390a4809150509392505050565b61112c8282604051806020016040528060008152506119af565b5050565b8060066000848152602001908152602001600020908161115091906127e0565b507ff8e1a15aba9398e019f0b49df1a4fde98ee17ae345cb5f6b5e2c27f5033e8ce7826040516111809190612218565b60405180910390a15050565b611194610ede565b73ffffffffffffffffffffffffffffffffffffffff166111b26109dd565b73ffffffffffffffffffffffffffffffffffffffff1614611211576111d5610ede565b6040517f118cdaa70000000000000000000000000000000000000000000000000000000081526004016112089190611fcb565b60405180910390fd5b565b6000600760009054906101000a900473ffffffffffffffffffffffffffffffffffffffff16905081600760006101000a81548173ffffffffffffffffffffffffffffffffffffffff021916908373ffffffffffffffffffffffffffffffffffffffff1602179055508173ffffffffffffffffffffffffffffffffffffffff168173ffffffffffffffffffffffffffffffffffffffff167f8be0079c531659141344cd1fd0a4f28419497f9722a3daafe3b4186f6b6457e060405160405180910390a35050565b600073ffffffffffffffffffffffffffffffffffffffff168273ffffffffffffffffffffffffffffffffffffffff160361134a57816040517f5b08ba180000000000000000000000000000000000000000000000000000000081526004016113419190611fcb565b60405180910390fd5b80600560008573ffffffffffffffffffffffffffffffffffffffff1673ffffffffffffffffffffffffffffffffffffffff16815260200190815260200160002060008473ffffffffffffffffffffffffffffffffffffffff1673ffffffffffffffffffffffffffffffffffffffff16815260200190815260200160002060006101000a81548160ff0219169083151502179055508173ffffffffffffffffffffffffffffffffffffffff168373ffffffffffffffffffffffffffffffffffffffff167f17307eab39ab6107e8899845ad3d59bd9653f200f220920489ca2b5937696c318360405161143b9190611e5a565b60405180910390a3505050565b60008373ffffffffffffffffffffffffffffffffffffffff163b11156115f9578273ffffffffffffffffffffffffffffffffffffffff1663150b7a0261148c610ede565b8685856040518563ffffffff1660e01b81526004016114ae94939291906128b2565b6020604051808303816000875af19250505080156114ea57506040513d601f19601f820116820180604052508101906114e79190612913565b60015b61156e573d806000811461151a576040519150601f19603f3d011682016040523d82523d6000602084013e61151f565b606091505b50600081510361156657836040517f64a0ae9200000000000000000000000000000000000000000000000000000000815260040161155d9190611fcb565b60405180910390fd5b805181602001fd5b63150b7a0260e01b7bffffffffffffffffffffffffffffffffffffffffffffffffffffffff1916817bffffffffffffffffffffffffffffffffffffffffffffffffffffffff1916146115f757836040517f64a0ae920000000000000000000000000000000000000000000000000000000081526004016115ee9190611fcb565b60405180910390fd5b505b50505050565b606060405180602001604052806000815250905090565b606061162182610e19565b50600061162c6115ff565b9050600081511161164c5760405180602001604052806000815250611677565b80611656846119cb565b604051602001611667929190612610565b6040516020818303038152906040525b915050919050565b60007f01ffc9a7000000000000000000000000000000000000000000000000000000007bffffffffffffffffffffffffffffffffffffffffffffffffffffffff1916827bffffffffffffffffffffffffffffffffffffffffffffffffffffffff1916149050919050565b60006002600083815260200190815260200160002060009054906101000a900473ffffffffffffffffffffffffffffffffffffffff169050919050565b808061175f5750600073ffffffffffffffffffffffffffffffffffffffff168273ffffffffffffffffffffffffffffffffffffffff1614155b1561189357600061176f84610e19565b9050600073ffffffffffffffffffffffffffffffffffffffff168373ffffffffffffffffffffffffffffffffffffffff16141580156117da57508273ffffffffffffffffffffffffffffffffffffffff168173ffffffffffffffffffffffffffffffffffffffff1614155b80156117ed57506117eb8184610c1d565b155b1561182f57826040517fa9fbf51f0000000000000000000000000000000000000000000000000000000081526004016118269190611fcb565b60405180910390fd5b811561189157838573ffffffffffffffffffffffffffffffffffffffff168273ffffffffffffffffffffffffffffffffffffffff167f8c5be1e5ebec7d5bd14f71427d1e84f3dd0314c0f7b2291e5b200ac8c7c3b92560405160405180910390a45b505b836004600085815260200190815260200160002060006101000a81548173ffffffffffffffffffffffffffffffffffffffff021916908373ffffffffffffffffffffffffffffffffffffffff16021790555050505050565b6118f6838383611a99565b6119aa57600073ffffffffffffffffffffffffffffffffffffffff168373ffffffffffffffffffffffffffffffffffffffff160361196b57806040517f7e2732890000000000000000000000000000000000000000000000000000000081526004016119629190612218565b60405180910390fd5b81816040517f177e802f0000000000000000000000000000000000000000000000000000000081526004016119a1929190612940565b60405180910390fd5b505050565b6119b98383611b5a565b6119c66000848484611448565b505050565b6060600060016119da84611c53565b01905060008167ffffffffffffffff8111156119f9576119f86122a4565b5b6040519080825280601f01601f191660200182016040528015611a2b5781602001600182028036833780820191505090505b509050600082602001820190505b600115611a8e578080600190039150507f3031323334353637383961626364656600000000000000000000000000000000600a86061a8153600a8581611a8257611a81612969565b5b04945060008503611a39575b819350505050919050565b60008073ffffffffffffffffffffffffffffffffffffffff168373ffffffffffffffffffffffffffffffffffffffff1614158015611b5157508273ffffffffffffffffffffffffffffffffffffffff168473ffffffffffffffffffffffffffffffffffffffff161480611b125750611b118484610c1d565b5b80611b5057508273ffffffffffffffffffffffffffffffffffffffff16611b3883610ea1565b73ffffffffffffffffffffffffffffffffffffffff16145b5b90509392505050565b600073ffffffffffffffffffffffffffffffffffffffff168273ffffffffffffffffffffffffffffffffffffffff1603611bcc5760006040517f64a0ae92000000000000000000000000000000000000000000000000000000008152600401611bc39190611fcb565b60405180910390fd5b6000611bda83836000610ef8565b9050600073ffffffffffffffffffffffffffffffffffffffff168173ffffffffffffffffffffffffffffffffffffffff1614611c4e5760006040517f73c6ac6e000000000000000000000000000000000000000000000000000000008152600401611c459190611fcb565b60405180910390fd5b505050565b600080600090507a184f03e93ff9f4daa797ed6e38ed64bf6a1f0100000000000000008310611cb1577a184f03e93ff9f4daa797ed6e38ed64bf6a1f0100000000000000008381611ca757611ca6612969565b5b0492506040810190505b6d04ee2d6d415b85acef81000000008310611cee576d04ee2d6d415b85acef81000000008381611ce457611ce3612969565b5b0492506020810190505b662386f26fc100008310611d1d57662386f26fc100008381611d1357611d12612969565b5b0492506010810190505b6305f5e1008310611d46576305f5e1008381611d3c57611d3b612969565b5b0492506008810190505b6127108310611d6b576127108381611d6157611d60612969565b5b0492506004810190505b60648310611d8e5760648381611d8457611d83612969565b5b0492506002810190505b600a8310611d9d576001810190505b80915050919050565b6000604051905090565b600080fd5b600080fd5b60007fffffffff0000000000000000000000000000000000000000000000000000000082169050919050565b611def81611dba565b8114611dfa57600080fd5b50565b600081359050611e0c81611de6565b92915050565b600060208284031215611e2857611e27611db0565b5b6000611e3684828501611dfd565b91505092915050565b60008115159050919050565b611e5481611e3f565b82525050565b6000602082019050611e6f6000830184611e4b565b92915050565b600081519050919050565b600082825260208201905092915050565b60005b83811015611eaf578082015181840152602081019050611e94565b60008484015250505050565b6000601f19601f8301169050919050565b6000611ed782611e75565b611ee18185611e80565b9350611ef1818560208601611e91565b611efa81611ebb565b840191505092915050565b60006020820190508181036000830152611f1f8184611ecc565b905092915050565b6000819050919050565b611f3a81611f27565b8114611f4557600080fd5b50565b600081359050611f5781611f31565b92915050565b600060208284031215611f7357611f72611db0565b5b6000611f8184828501611f48565b91505092915050565b600073ffffffffffffffffffffffffffffffffffffffff82169050919050565b6000611fb582611f8a565b9050919050565b611fc581611faa565b82525050565b6000602082019050611fe06000830184611fbc565b92915050565b611fef81611faa565b8114611ffa57600080fd5b50565b60008135905061200c81611fe6565b92915050565b6000806040838503121561202957612028611db0565b5b600061203785828601611ffd565b925050602061204885828601611f48565b9150509250929050565b60008060006060848603121561206b5761206a611db0565b5b600061207986828701611ffd565b935050602061208a86828701611ffd565b925050604061209b86828701611f48565b9150509250925092565b600080fd5b600080fd5b600080fd5b60008083601f8401126120ca576120c96120a5565b5b8235905067ffffffffffffffff8111156120e7576120e66120aa565b5b602083019150836001820283011115612103576121026120af565b5b9250929050565b6000806020838503121561212157612120611db0565b5b600083013567ffffffffffffffff81111561213f5761213e611db5565b5b61214b858286016120b4565b92509250509250929050565b600081519050919050565b600082825260208201905092915050565b600061217e82612157565b6121888185612162565b9350612198818560208601611e91565b6121a181611ebb565b840191505092915050565b60006040820190506121c16000830185611e4b565b81810360208301526121d38184612173565b90509392505050565b6000602082840312156121f2576121f1611db0565b5b600061220084828501611ffd565b91505092915050565b61221281611f27565b82525050565b600060208201905061222d6000830184612209565b92915050565b61223c81611e3f565b811461224757600080fd5b50565b60008135905061225981612233565b92915050565b6000806040838503121561227657612275611db0565b5b600061228485828601611ffd565b92505060206122958582860161224a565b9150509250929050565b600080fd5b7f4e487b7100000000000000000000000000000000000000000000000000000000600052604160045260246000fd5b6122dc82611ebb565b810181811067ffffffffffffffff821117156122fb576122fa6122a4565b5b80604052505050565b600061230e611da6565b905061231a82826122d3565b919050565b600067ffffffffffffffff82111561233a576123396122a4565b5b61234382611ebb565b9050602081019050919050565b82818337600083830152505050565b600061237261236d8461231f565b612304565b90508281526020810184848401111561238e5761238d61229f565b5b612399848285612350565b509392505050565b600082601f8301126123b6576123b56120a5565b5b81356123c684826020860161235f565b91505092915050565b600080600080608085870312156123e9576123e8611db0565b5b60006123f787828801611ffd565b945050602061240887828801611ffd565b935050604061241987828801611f48565b925050606085013567ffffffffffffffff81111561243a57612439611db5565b5b612446878288016123a1565b91505092959194509250565b6000806040838503121561246957612468611db0565b5b600061247785828601611ffd565b925050602061248885828601611ffd565b9150509250929050565b7f4e487b7100000000000000000000000000000000000000000000000000000000600052602260045260246000fd5b600060028204905060018216806124d957607f821691505b6020821081036124ec576124eb612492565b5b50919050565b60006060820190506125076000830186611fbc565b6125146020830185612209565b6125216040830184611fbc565b949350505050565b7f4e487b7100000000000000000000000000000000000000000000000000000000600052601160045260246000fd5b600061256382611f27565b91507fffffffffffffffffffffffffffffffffffffffffffffffffffffffffffffffff820361259557612594612529565b5b600182019050919050565b60006125ab82611f27565b91506125b683611f27565b92508282039050818111156125ce576125cd612529565b5b92915050565b600081905092915050565b60006125ea82611e75565b6125f481856125d4565b9350612604818560208601611e91565b80840191505092915050565b600061261c82856125df565b915061262882846125df565b91508190509392505050565b60008190508160005260206000209050919050565b60006020601f8301049050919050565b600082821b905092915050565b6000600883026126967fffffffffffffffffffffffffffffffffffffffffffffffffffffffffffffffff82612659565b6126a08683612659565b95508019841693508086168417925050509392505050565b6000819050919050565b60006126dd6126d86126d384611f27565b6126b8565b611f27565b9050919050565b6000819050919050565b6126f7836126c2565b61270b612703826126e4565b848454612666565b825550505050565b600090565b612720612713565b61272b8184846126ee565b505050565b5b8181101561274f57612744600082612718565b600181019050612731565b5050565b601f8211156127945761276581612634565b61276e84612649565b8101602085101561277d578190505b61279161278985612649565b830182612730565b50505b505050565b600082821c905092915050565b60006127b760001984600802612799565b1980831691505092915050565b60006127d083836127a6565b9150826002028217905092915050565b6127e982611e75565b67ffffffffffffffff811115612802576128016122a4565b5b61280c82546124c1565b612817828285612753565b600060209050601f83116001811461284a5760008415612838578287015190505b61284285826127c4565b8655506128aa565b601f19841661285886612634565b60005b828110156128805784890151825560018201915060208501945060208101905061285b565b8683101561289d5784890151612899601f8916826127a6565b8355505b6001600288020188555050505b505050505050565b60006080820190506128c76000830187611fbc565b6128d46020830186611fbc565b6128e16040830185612209565b81810360608301526128f38184612173565b905095945050505050565b60008151905061290d81611de6565b92915050565b60006020828403121561292957612928611db0565b5b6000612937848285016128fe565b91505092915050565b60006040820190506129556000830185611fbc565b6129626020830184612209565b9392505050565b7f4e487b7100000000000000000000000000000000000000000000000000000000600052601260045260246000fdfe68747470733a2f2f697066732e66696c65626173652e696f2f697066732f516d634542436562387372576939364271325266626b4b475a6a46566b557156576132377734587178745a416e3968747470733a2f2f697066732e66696c65626173652e696f2f697066732f516d57356f5370796f4c6974674e5971796358444b6971416864765966584c6d70456a6e4d55346875583279544e68747470733a2f2f697066732e66696c65626173652e696f2f697066732f516d544b4d3856776f777569734e4b344231714e6a476f4e776543726e4b6a545754346147764c6d434471596f59a26469706673582212209b8003dc3a61fffc92e34a63e35d57adbc2c88826338b64121e0b9614201043b64736f6c63430008140033",
  "linkReferences": {},
  "deployedLinkReferences": {}
}